:100000003BC0FECFFDCF7AC0FBCFFACFF9CFF8CF00
:0E001000F7CFF6CFF5CFF4CFF3CFF2CFF1CF8D
:10007800BFE5BDBFB2E0BEBFB8B3B061B8BBB7B3F0
:10008800B061B7BBB8B3B160B8BBB7B3B160B7BB09
:10009800B8B3B260B8BBB7B3B260B7BBB8B3BB7FD5
:1000A800B8BBB7B3BB7FB7BBB0E0B0936000B09349
:1000B8006100B6B3BE7FB6BBB6B3BD7FB6BBB6B341
:1000C800BB7FB6BBC8DFCEDFAEDFB6B3B2FD04C0C0
:1000D800B6B3B160B6BB03C0B6B3BE7FB6BB25E04E
:1000E8001FE002EF0A95F1F71A95E1F72A95D1F783
:0400F800ECCFFFCF7B
:0E005E00B3E1BABDB1E0B3BFB0E5BCBD0895DB
:0C006C00B6B3BD7FB6BBB0E0B8BD0895D0
:10002E00BFB7B068BFBFBAEFBEBDB7E8B0BFB9B714
:06003E00B064B9BF089593
:0E004400EC2FFD2F05900D920197E1F7089526
:1000FC000F931F932F933F93EF93FF93BF93BFB730
:10010C00BF9300916000109161000F5F1F4F00932F
:10011C00600010936100A4DF0091600010916100F9
:10012C00103009F40A3058F02091600030916100D1
:10013C0004E110E00217130710F085DF48C00091AE
:10014C00600010916100103009F4043170F02091BE
:10015C006000309161000EE110E00217130728F0E7
:10016C007FDFB6B3BB7FB6BB32C00091600010918D
:10017C006100103009F40E3158F02091600030917C
:10018C00610008E210E00217130710F05CDF1FC0DB
:10019C000091600010916100103009F40832B8F041
:1001AC00209160003091610004EF11E002171307F9
:1001BC0070F056DF0091600010916100113009F46D
:1001CC00043F28F0B0E0B0936000B0936100BF91A1
:1001DC00BFBFBF91FF91EF913F912F911F910F9155
:0201EC00189564
:0C005200B6B3B260B6BBB2E8B8BD08950A
:00000001FF
